{
  "_format": "hh-sol-artifact-1",
  "contractName": "MockERC721",
  "sourceName": "contracts/test/MockERC721.sol",
  "abi": [
    {
      "inputs": [],
      "stateMutability": "nonpayable",
      "type": "constructor"
    },
    {
      "inputs": [
        {
          "internalType": "address",
          "name": "sender",
          "type": "address"
        },
        {
          "internalType": "uint256",
          "name": "tokenId",
          "type": "uint256"
        },
        {
          "internalType": "address",
          "name": "owner",
          "type": "address"
        }
      ],
      "name": "ERC721IncorrectOwner",
      "type": "error"
    },
    {
      "inputs": [
        {
          "internalType": "address",
          "name": "operator",
          "type": "address"
        },
        {
          "internalType": "uint256",
          "name": "tokenId",
          "type": "uint256"
        }
      ],
      "name": "ERC721InsufficientApproval",
      "type": "error"
    },
    {
      "inputs": [
        {
          "internalType": "address",
          "name": "approver",
          "type": "address"
        }
      ],
      "name": "ERC721InvalidApprover",
      "type": "error"
    },
    {
      "inputs": [
        {
          "internalType": "address",
          "name": "operator",
          "type": "address"
        }
      ],
      "name": "ERC721InvalidOperator",
      "type": "error"
    },
    {
      "inputs": [
        {
          "internalType": "address",
          "name": "owner",
          "type": "address"
        }
      ],
      "name": "ERC721InvalidOwner",
      "type": "error"
    },
    {
      "inputs": [
        {
          "internalType": "address",
          "name": "receiver",
          "type": "address"
        }
      ],
      "name": "ERC721InvalidReceiver",
      "type": "error"
    },
    {
      "inputs": [
        {
          "internalType": "address",
          "name": "sender",
          "type": "address"
        }
      ],
      "name": "ERC721InvalidSender",
      "type": "error"
    },
    {
      "inputs": [
        {
          "internalType": "uint256",
          "name": "tokenId",
          "type": "uint256"
        }
      ],
      "name": "ERC721NonexistentToken",
      "type": "error"
    },
    {
      "anonymous": false,
      "inputs": [
        {
          "indexed": true,
          "internalType": "address",
          "name": "owner",
          "type": "address"
        },
        {
          "indexed": true,
          "internalType": "address",
          "name": "approved",
          "type": "address"
        },
        {
          "indexed": true,
          "internalType": "uint256",
          "name": "tokenId",
          "type": "uint256"
        }
      ],
      "name": "Approval",
      "type": "event"
    },
    {
      "anonymous": false,
      "inputs": [
        {
          "indexed": true,
          "internalType": "address",
          "name": "owner",
          "type": "address"
        },
        {
          "indexed": true,
          "internalType": "address",
          "name": "operator",
          "type": "address"
        },
        {
          "indexed": false,
          "internalType": "bool",
          "name": "approved",
          "type": "bool"
        }
      ],
      "name": "ApprovalForAll",
      "type": "event"
    },
    {
      "anonymous": false,
      "inputs": [
        {
          "indexed": true,
          "internalType": "address",
          "name": "from",
          "type": "address"
        },
        {
          "indexed": true,
          "internalType": "address",
          "name": "to",
          "type": "address"
        },
        {
          "indexed": true,
          "internalType": "uint256",
          "name": "tokenId",
          "type": "uint256"
        }
      ],
      "name": "Transfer",
      "type": "event"
    },
    {
      "inputs": [
        {
          "internalType": "address",
          "name": "to",
          "type": "address"
        },
        {
          "internalType": "uint256",
          "name": "tokenId",
          "type": "uint256"
        }
      ],
      "name": "approve",
      "outputs": [],
      "stateMutability": "nonpayable",
      "type": "function"
    },
    {
      "inputs": [
        {
          "internalType": "address",
          "name": "owner",
          "type": "address"
        }
      ],
      "name": "balanceOf",
      "outputs": [
        {
          "internalType": "uint256",
          "name": "",
          "type": "uint256"
        }
      ],
      "stateMutability": "view",
      "type": "function"
    },
    {
      "inputs": [
        {
          "internalType": "uint256",
          "name": "tokenId",
          "type": "uint256"
        }
      ],
      "name": "getApproved",
      "outputs": [
        {
          "internalType": "address",
          "name": "",
          "type": "address"
        }
      ],
      "stateMutability": "view",
      "type": "function"
    },
    {
      "inputs": [
        {
          "internalType": "address",
          "name": "owner",
          "type": "address"
        },
        {
          "internalType": "address",
          "name": "operator",
          "type": "address"
        }
      ],
      "name": "isApprovedForAll",
      "outputs": [
        {
          "internalType": "bool",
          "name": "",
          "type": "bool"
        }
      ],
      "stateMutability": "view",
      "type": "function"
    },
    {
      "inputs": [
        {
          "internalType": "address",
          "name": "to",
          "type": "address"
        },
        {
          "internalType": "uint256",
          "name": "tokenId",
          "type": "uint256"
        }
      ],
      "name": "mint",
      "outputs": [],
      "stateMutability": "nonpayable",
      "type": "function"
    },
    {
      "inputs": [],
      "name": "name",
      "outputs": [
        {
          "internalType": "string",
          "name": "",
          "type": "string"
        }
      ],
      "stateMutability": "view",
      "type": "function"
    },
    {
      "inputs": [
        {
          "internalType": "uint256",
          "name": "tokenId",
          "type": "uint256"
        }
      ],
      "name": "ownerOf",
      "outputs": [
        {
          "internalType": "address",
          "name": "",
          "type": "address"
        }
      ],
      "stateMutability": "view",
      "type": "function"
    },
    {
      "inputs": [
        {
          "internalType": "address",
          "name": "from",
          "type": "address"
        },
        {
          "internalType": "address",
          "name": "to",
          "type": "address"
        },
        {
          "internalType": "uint256",
          "name": "tokenId",
          "type": "uint256"
        }
      ],
      "name": "safeTransferFrom",
      "outputs": [],
      "stateMutability": "nonpayable",
      "type": "function"
    },
    {
      "inputs": [
        {
          "internalType": "address",
          "name": "from",
          "type": "address"
        },
        {
          "internalType": "address",
          "name": "to",
          "type": "address"
        },
        {
          "internalType": "uint256",
          "name": "tokenId",
          "type": "uint256"
        },
        {
          "internalType": "bytes",
          "name": "data",
          "type": "bytes"
        }
      ],
      "name": "safeTransferFrom",
      "outputs": [],
      "stateMutability": "nonpayable",
      "type": "function"
    },
    {
      "inputs": [
        {
          "internalType": "address",
          "name": "operator",
          "type": "address"
        },
        {
          "internalType": "bool",
          "name": "approved",
          "type": "bool"
        }
      ],
      "name": "setApprovalForAll",
      "outputs": [],
      "stateMutability": "nonpayable",
      "type": "function"
    },
    {
      "inputs": [
        {
          "internalType": "bytes4",
          "name": "interfaceId",
          "type": "bytes4"
        }
      ],
      "name": "supportsInterface",
      "outputs": [
        {
          "internalType": "bool",
          "name": "",
          "type": "bool"
        }
      ],
      "stateMutability": "view",
      "type": "function"
    },
    {
      "inputs": [],
      "name": "symbol",
      "outputs": [
        {
          "internalType": "string",
          "name": "",
          "type": "string"
        }
      ],
      "stateMutability": "view",
      "type": "function"
    },
    {
      "inputs": [
        {
          "internalType": "uint256",
          "name": "tokenId",
          "type": "uint256"
        }
      ],
      "name": "tokenURI",
      "outputs": [
        {
          "internalType": "string",
          "name": "",
          "type": "string"
        }
      ],
      "stateMutability": "view",
      "type": "function"
    },
    {
      "inputs": [
        {
          "internalType": "address",
          "name": "from",
          "type": "address"
        },
        {
          "internalType": "address",
          "name": "to",
          "type": "address"
        },
        {
          "internalType": "uint256",
          "name": "tokenId",
          "type": "uint256"
        }
      ],
      "name": "transferFrom",
      "outputs": [],
      "stateMutability": "nonpayable",
      "type": "function"
    }
  ],
  "bytecode": "0x608060405234801561001057600080fd5b506040518060400160405280600781526020017f4d6f636b4e4654000000000000000000000000000000000000000000000000008152506040518060400160405280600481526020017f4d4e465400000000000000000000000000000000000000000000000000000000815250816000908161008c91906102f4565b50806001908161009c91906102f4565b5050506103c6565b600081519050919050565b7f4e487b7100000000000000000000000000000000000000000000000000000000600052604160045260246000fd5b7f4e487b7100000000000000000000000000000000000000000000000000000000600052602260045260246000fd5b6000600282049050600182168061012557607f821691505b602082108103610138576101376100de565b5b50919050565b60008190508160005260206000209050919050565b60006020601f8301049050919050565b600082821b905092915050565b6000600883026101a07fffffffffffffffffffffffffffffffffffffffffffffffffffffffffffffffff82610163565b6101aa8683610163565b95508019841693508086168417925050509392505050565b6000819050919050565b6000819050919050565b60006101f16101ec6101e7846101c2565b6101cc565b6101c2565b9050919050565b6000819050919050565b61020b836101d6565b61021f610217826101f8565b848454610170565b825550505050565b600090565b610234610227565b61023f818484610202565b505050565b5b818110156102635761025860008261022c565b600181019050610245565b5050565b601f8211156102a8576102798161013e565b61028284610153565b81016020851015610291578190505b6102a561029d85610153565b830182610244565b50505b505050565b600082821c905092915050565b60006102cb600019846008026102ad565b1980831691505092915050565b60006102e483836102ba565b9150826002028217905092915050565b6102fd826100a4565b67ffffffffffffffff811115610316576103156100af565b5b610320825461010d565b61032b828285610267565b600060209050601f83116001811461035e576000841561034c578287015190505b61035685826102d8565b8655506103be565b601f19841661036c8661013e565b60005b828110156103945784890151825560018201915060208501945060208101905061036f565b868310156103b157848901516103ad601f8916826102ba565b8355505b6001600288020188555050505b505050505050565b611dbc806103d56000396000f3fe608060405234801561001057600080fd5b50600436106100ea5760003560e01c80636352211e1161008c578063a22cb46511610066578063a22cb4651461025b578063b88d4fde14610277578063c87b56dd14610293578063e985e9c5146102c3576100ea565b80636352211e146101dd57806370a082311461020d57806395d89b411461023d576100ea565b8063095ea7b3116100c8578063095ea7b31461016d57806323b872dd1461018957806340c10f19146101a557806342842e0e146101c1576100ea565b806301ffc9a7146100ef57806306fdde031461011f578063081812fc1461013d575b600080fd5b61010960048036038101906101049190611606565b6102f3565b604051610116919061164e565b60405180910390f35b6101276103d5565b60405161013491906116f9565b60405180910390f35b61015760048036038101906101529190611751565b610467565b60405161016491906117bf565b60405180910390f35b61018760048036038101906101829190611806565b610483565b005b6101a3600480360381019061019e9190611846565b610499565b005b6101bf60048036038101906101ba9190611806565b61059b565b005b6101db60048036038101906101d69190611846565b6105a9565b005b6101f760048036038101906101f29190611751565b6105c9565b60405161020491906117bf565b60405180910390f35b61022760048036038101906102229190611899565b6105db565b60405161023491906118d5565b60405180910390f35b610245610695565b60405161025291906116f9565b60405180910390f35b6102756004803603810190610270919061191c565b610727565b005b610291600480360381019061028c9190611a91565b61073d565b005b6102ad60048036038101906102a89190611751565b610762565b6040516102ba91906116f9565b60405180910390f35b6102dd60048036038101906102d89190611b14565b6107cb565b6040516102ea919061164e565b60405180910390f35b60007f80ac58cd000000000000000000000000000000000000000000000000000000007bffffffffffffffffffffffffffffffffffffffffffffffffffffffff1916827bffffffffffffffffffffffffffffffffffffffffffffffffffffffff191614806103be57507f5b5e139f000000000000000000000000000000000000000000000000000000007bffffffffffffffffffffffffffffffffffffffffffffffffffffffff1916827bffffffffffffffffffffffffffffffffffffffffffffffffffffffff1916145b806103ce57506103cd8261085f565b5b9050919050565b6060600080546103e490611b83565b80601f016020809104026020016040519081016040528092919081815260200182805461041090611b83565b801561045d5780601f106104325761010080835404028352916020019161045d565b820191906000526020600020905b81548152906001019060200180831161044057829003601f168201915b5050505050905090565b6000610472826108c9565b5061047c82610951565b9050919050565b610495828261049061098e565b610996565b5050565b600073ffffffffffffffffffffffffffffffffffffffff168273ffffffffffffffffffffffffffffffffffffffff160361050b5760006040517f64a0ae9200000000000000000000000000000000000000000000000000000000815260040161050291906117bf565b60405180910390fd5b600061051f838361051a61098e565b6109a8565b90508373ffffffffffffffffffffffffffffffffffffffff168173ffffffffffffffffffffffffffffffffffffffff1614610595578382826040517f64283d7b00000000000000000000000000000000000000000000000000000000815260040161058c93929190611bb4565b60405180910390fd5b50505050565b6105a58282610bc2565b5050565b6105c48383836040518060200160405280600081525061073d565b505050565b60006105d4826108c9565b9050919050565b60008073ffffffffffffffffffffffffffffffffffffffff168273ffffffffffffffffffffffffffffffffffffffff160361064e5760006040517f89c62b6400000000000000000000000000000000000000000000000000000000815260040161064591906117bf565b60405180910390fd5b600360008373ffffffffffffffffffffffffffffffffffffffff1673ffffffffffffffffffffffffffffffffffffffff168152602001908152602001600020549050919050565b6060600180546106a490611b83565b80601f01602080910402602001604051908101604052809291908181526020018280546106d090611b83565b801561071d5780601f106106f25761010080835404028352916020019161071d565b820191906000526020600020905b81548152906001019060200180831161070057829003601f168201915b5050505050905090565b61073961073261098e565b8383610cbb565b5050565b610748848484610499565b61075c61075361098e565b85858585610e2a565b50505050565b606061076d826108c9565b506000610778610fdb565b9050600081511161079857604051806020016040528060008152506107c3565b806107a284610ff2565b6040516020016107b3929190611c27565b6040516020818303038152906040525b915050919050565b6000600560008473ffffffffffffffffffffffffffffffffffffffff1673ffffffffffffffffffffffffffffffffffffffff16815260200190815260200160002060008373ffffffffffffffffffffffffffffffffffffffff1673ffffffffffffffffffffffffffffffffffffffff16815260200190815260200160002060009054906101000a900460ff16905092915050565b60007f01ffc9a7000000000000000000000000000000000000000000000000000000007bffffffffffffffffffffffffffffffffffffffffffffffffffffffff1916827bffffffffffffffffffffffffffffffffffffffffffffffffffffffff1916149050919050565b6000806108d5836110c0565b9050600073ffffffffffffffffffffffffffffffffffffffff168173ffffffffffffffffffffffffffffffffffffffff160361094857826040517f7e27328900000000000000000000000000000000000000000000000000000000815260040161093f91906118d5565b60405180910390fd5b80915050919050565b60006004600083815260200190815260200160002060009054906101000a900473ffffffffffffffffffffffffffffffffffffffff169050919050565b600033905090565b6109a383838360016110fd565b505050565b6000806109b4846110c0565b9050600073ffffffffffffffffffffffffffffffffffffffff168373ffffffffffffffffffffffffffffffffffffffff16146109f6576109f58184866112c2565b5b600073ffffffffffffffffffffffffffffffffffffffff168173ffffffffffffffffffffffffffffffffffffffff1614610a8757610a386000856000806110fd565b6001600360008373ffffffffffffffffffffffffffffffffffffffff1673ffffffffffffffffffffffffffffffffffffffff168152602001908152602001600020600082825403925050819055505b600073ffffffffffffffffffffffffffffffffffffffff168573ffffffffffffffffffffffffffffffffffffffff1614610b0a576001600360008773ffffffffffffffffffffffffffffffffffffffff1673ffffffffffffffffffffffffffffffffffffffff168152602001908152602001600020600082825401925050819055505b846002600086815260200190815260200160002060006101000a81548173ffffffffffffffffffffffffffffffffffffffff021916908373ffffffffffffffffffffffffffffffffffffffff160217905550838573ffffffffffffffffffffffffffffffffffffffff168273ffffffffffffffffffffffffffffffffffffffff167fddf252ad1be2c89b69c2b068fc378daa952ba7f163c4a11628f55a4df523b3ef60405160405180910390a4809150509392505050565b600073ffffffffffffffffffffffffffffffffffffffff168273ffffffffffffffffffffffffffffffffffffffff1603610c345760006040517f64a0ae92000000000000000000000000000000000000000000000000000000008152600401610c2b91906117bf565b60405180910390fd5b6000610c42838360006109a8565b9050600073ffffffffffffffffffffffffffffffffffffffff168173ffffffffffffffffffffffffffffffffffffffff1614610cb65760006040517f73c6ac6e000000000000000000000000000000000000000000000000000000008152600401610cad91906117bf565b60405180910390fd5b505050565b600073ffffffffffffffffffffffffffffffffffffffff168273ffffffffffffffffffffffffffffffffffffffff1603610d2c57816040517f5b08ba18000000000000000000000000000000000000000000000000000000008152600401610d2391906117bf565b60405180910390fd5b80600560008573ffffffffffffffffffffffffffffffffffffffff1673ffffffffffffffffffffffffffffffffffffffff16815260200190815260200160002060008473ffffffffffffffffffffffffffffffffffffffff1673ffffffffffffffffffffffffffffffffffffffff16815260200190815260200160002060006101000a81548160ff0219169083151502179055508173ffffffffffffffffffffffffffffffffffffffff168373ffffffffffffffffffffffffffffffffffffffff167f17307eab39ab6107e8899845ad3d59bd9653f200f220920489ca2b5937696c3183604051610e1d919061164e565b60405180910390a3505050565b60008373ffffffffffffffffffffffffffffffffffffffff163b1115610fd4578273ffffffffffffffffffffffffffffffffffffffff1663150b7a02868685856040518563ffffffff1660e01b8152600401610e899493929190611ca0565b6020604051808303816000875af1925050508015610ec557506040513d601f19601f82011682018060405250810190610ec29190611d01565b60015b610f49573d8060008114610ef5576040519150601f19603f3d011682016040523d82523d6000602084013e610efa565b606091505b506000815103610f4157836040517f64a0ae92000000000000000000000000000000000000000000000000000000008152600401610f3891906117bf565b60405180910390fd5b805160208201fd5b63150b7a0260e01b7bffffffffffffffffffffffffffffffffffffffffffffffffffffffff1916817bffffffffffffffffffffffffffffffffffffffffffffffffffffffff191614610fd257836040517f64a0ae92000000000000000000000000000000000000000000000000000000008152600401610fc991906117bf565b60405180910390fd5b505b5050505050565b606060405180602001604052806000815250905090565b60606000600161100184611386565b01905060008167ffffffffffffffff8111156110205761101f611966565b5b6040519080825280601f01601f1916602001820160405280156110525781602001600182028036833780820191505090505b509050600082602083010190505b6001156110b5578080600190039150507f3031323334353637383961626364656600000000000000000000000000000000600a86061a8153600a85816110a9576110a8611d2e565b5b04945060008503611060575b819350505050919050565b60006002600083815260200190815260200160002060009054906101000a900473ffffffffffffffffffffffffffffffffffffffff169050919050565b80806111365750600073ffffffffffffffffffffffffffffffffffffffff168273ffffffffffffffffffffffffffffffffffffffff1614155b1561126a576000611146846108c9565b9050600073ffffffffffffffffffffffffffffffffffffffff168373ffffffffffffffffffffffffffffffffffffffff16141580156111b157508273ffffffffffffffffffffffffffffffffffffffff168173ffffffffffffffffffffffffffffffffffffffff1614155b80156111c457506111c281846107cb565b155b1561120657826040517fa9fbf51f0000000000000000000000000000000000000000000000000000000081526004016111fd91906117bf565b60405180910390fd5b811561126857838573ffffffffffffffffffffffffffffffffffffffff168273ffffffffffffffffffffffffffffffffffffffff167f8c5be1e5ebec7d5bd14f71427d1e84f3dd0314c0f7b2291e5b200ac8c7c3b92560405160405180910390a45b505b836004600085815260200190815260200160002060006101000a81548173ffffffffffffffffffffffffffffffffffffffff021916908373ffffffffffffffffffffffffffffffffffffffff16021790555050505050565b6112cd8383836114d9565b61138157600073ffffffffffffffffffffffffffffffffffffffff168373ffffffffffffffffffffffffffffffffffffffff160361134257806040517f7e27328900000000000000000000000000000000000000000000000000000000815260040161133991906118d5565b60405180910390fd5b81816040517f177e802f000000000000000000000000000000000000000000000000000000008152600401611378929190611d5d565b60405180910390fd5b505050565b600080600090507a184f03e93ff9f4daa797ed6e38ed64bf6a1f01000000000000000083106113e4577a184f03e93ff9f4daa797ed6e38ed64bf6a1f01000000000000000083816113da576113d9611d2e565b5b0492506040810190505b6d04ee2d6d415b85acef81000000008310611421576d04ee2d6d415b85acef8100000000838161141757611416611d2e565b5b0492506020810190505b662386f26fc10000831061145057662386f26fc10000838161144657611445611d2e565b5b0492506010810190505b6305f5e1008310611479576305f5e100838161146f5761146e611d2e565b5b0492506008810190505b612710831061149e57612710838161149457611493611d2e565b5b0492506004810190505b606483106114c157606483816114b7576114b6611d2e565b5b0492506002810190505b600a83106114d0576001810190505b80915050919050565b60008073ffffffffffffffffffffffffffffffffffffffff168373ffffffffffffffffffffffffffffffffffffffff161415801561159157508273ffffffffffffffffffffffffffffffffffffffff168473ffffffffffffffffffffffffffffffffffffffff161480611552575061155184846107cb565b5b8061159057508273ffffffffffffffffffffffffffffffffffffffff1661157883610951565b73ffffffffffffffffffffffffffffffffffffffff16145b5b90509392505050565b6000604051905090565b600080fd5b600080fd5b60007fffffffff0000000000000000000000000000000000000000000000000000000082169050919050565b6115e3816115ae565b81146115ee57600080fd5b50565b600081359050611600816115da565b92915050565b60006020828403121561161c5761161b6115a4565b5b600061162a848285016115f1565b91505092915050565b60008115159050919050565b61164881611633565b82525050565b6000602082019050611663600083018461163f565b92915050565b600081519050919050565b600082825260208201905092915050565b60005b838110156116a3578082015181840152602081019050611688565b60008484015250505050565b6000601f19601f8301169050919050565b60006116cb82611669565b6116d58185611674565b93506116e5818560208601611685565b6116ee816116af565b840191505092915050565b6000602082019050818103600083015261171381846116c0565b905092915050565b6000819050919050565b61172e8161171b565b811461173957600080fd5b50565b60008135905061174b81611725565b92915050565b600060208284031215611767576117666115a4565b5b60006117758482850161173c565b91505092915050565b600073ffffffffffffffffffffffffffffffffffffffff82169050919050565b60006117a98261177e565b9050919050565b6117b98161179e565b82525050565b60006020820190506117d460008301846117b0565b92915050565b6117e38161179e565b81146117ee57600080fd5b50565b600081359050611800816117da565b92915050565b6000806040838503121561181d5761181c6115a4565b5b600061182b858286016117f1565b925050602061183c8582860161173c565b9150509250929050565b60008060006060848603121561185f5761185e6115a4565b5b600061186d868287016117f1565b935050602061187e868287016117f1565b925050604061188f8682870161173c565b9150509250925092565b6000602082840312156118af576118ae6115a4565b5b60006118bd848285016117f1565b91505092915050565b6118cf8161171b565b82525050565b60006020820190506118ea60008301846118c6565b92915050565b6118f981611633565b811461190457600080fd5b50565b600081359050611916816118f0565b92915050565b60008060408385031215611933576119326115a4565b5b6000611941858286016117f1565b925050602061195285828601611907565b9150509250929050565b600080fd5b600080fd5b7f4e487b7100000000000000000000000000000000000000000000000000000000600052604160045260246000fd5b61199e826116af565b810181811067ffffffffffffffff821117156119bd576119bc611966565b5b80604052505050565b60006119d061159a565b90506119dc8282611995565b919050565b600067ffffffffffffffff8211156119fc576119fb611966565b5b611a05826116af565b9050602081019050919050565b82818337600083830152505050565b6000611a34611a2f846119e1565b6119c6565b905082815260208101848484011115611a5057611a4f611961565b5b611a5b848285611a12565b509392505050565b600082601f830112611a7857611a7761195c565b5b8135611a88848260208601611a21565b91505092915050565b60008060008060808587031215611aab57611aaa6115a4565b5b6000611ab9878288016117f1565b9450506020611aca878288016117f1565b9350506040611adb8782880161173c565b925050606085013567ffffffffffffffff811115611afc57611afb6115a9565b5b611b0887828801611a63565b91505092959194509250565b60008060408385031215611b2b57611b2a6115a4565b5b6000611b39858286016117f1565b9250506020611b4a858286016117f1565b9150509250929050565b7f4e487b7100000000000000000000000000000000000000000000000000000000600052602260045260246000fd5b60006002820490506001821680611b9b57607f821691505b602082108103611bae57611bad611b54565b5b50919050565b6000606082019050611bc960008301866117b0565b611bd660208301856118c6565b611be360408301846117b0565b949350505050565b600081905092915050565b6000611c0182611669565b611c0b8185611beb565b9350611c1b818560208601611685565b80840191505092915050565b6000611c338285611bf6565b9150611c3f8284611bf6565b91508190509392505050565b600081519050919050565b600082825260208201905092915050565b6000611c7282611c4b565b611c7c8185611c56565b9350611c8c818560208601611685565b611c95816116af565b840191505092915050565b6000608082019050611cb560008301876117b0565b611cc260208301866117b0565b611ccf60408301856118c6565b8181036060830152611ce18184611c67565b905095945050505050565b600081519050611cfb816115da565b92915050565b600060208284031215611d1757611d166115a4565b5b6000611d2584828501611cec565b91505092915050565b7f4e487b7100000000000000000000000000000000000000000000000000000000600052601260045260246000fd5b6000604082019050611d7260008301856117b0565b611d7f60208301846118c6565b939250505056fea264697066735822122029504d994683aa8073d287b02a32053f30ad0f2e28f97ab27fa11e40b2c2d88364736f6c634300081c0033",
  "linkReferences": {},
  "deployedLinkReferences": {}
}